:100000000C945C000C946E000C946E000C946E00CA
:100010000C946E000C946E000C946E000C946E00A8
:100020000C946E000C946E000C946E000C946E0098
:100030000C946E000C946E000C946E000C946E0088
:100040000C9470000C946E000C946E000C946E0076
:100050000C946E000C946E000C946E000C946E0068
:100060000C946E000C946E00000000002400270029
:100070002A0000000000250028002B0004040404CE
:100080000404040402020202020203030303030342
:10009000010204081020408001020408102001021F
:1000A00004081020000000080002010000030407FB
:1000B000000000000000000011241FBECFEFD8E0B8
:1000C000DEBFCDBF21E0A0E0B1E001C01D92A930AC
:1000D000B207E1F70E94BA000C945D010C94000095
:1000E0001F920F920FB60F9211242F933F938F936D
:1000F0009F93AF93BF938091050190910601A091CA
:100100000701B09108013091040123E0230F2D373E
:1001100058F50196A11DB11D20930401809305019E
:1001200090930601A0930701B0930801809100010C
:1001300090910101A0910201B09103010196A11DCE
:10014000B11D8093000190930101A0930201B0932F
:100150000301BF91AF919F918F913F912F910F908C
:100160000FBE0F901F90189526E8230F0296A11D31
:10017000B11DD2CF789484B5826084BD84B581608E
:1001800084BD85B5826085BD85B5816085BD809162
:100190006E00816080936E001092810080918100DA
:1001A00082608093810080918100816080938100D2
:1001B000809180008160809380008091B100846094
:1001C0008093B1008091B00081608093B0008091F5
:1001D0007A00846080937A0080917A0082608093B4
:1001E0007A0080917A00816080937A0080917A0011
:1001F000806880937A001092C10025E930E0F9010F
:10020000649141E850E0FA018491882399F090E0EC
:10021000880F991FFC01E859FF4FA591B491FC018B
:10022000EE58FF4F859194918FB7F8949C91692B6C
:100230006C938FBF69EA70E0FB018491F90194919E
:10024000FA01A491AA23C1F3882339F08330F1F095
:1002500098F4813009F1823019F1EA2FF0E0EE0FC5
:10026000FF1FEE58FF4FA591B4918FB7F894EC9112
:100270009E2B9C938FBFE0CF8730A9F08830C9F0C8
:10028000843059F7809180008F7D03C08091800079
:100290008F7780938000E1CF84B58F7784BDDDCFE9
:1002A00084B58F7DFBCF8091B0008F778093B000B5
:0E02B000D4CF8091B0008F7DF9CFF894FFCFAE
:00000001FF
